{"abi":[{"type":"constructor","inputs":[{"name":"_usdc","type":"address","internalType":"address"}],"stateMutability":"nonpayable"},{"type":"function","name":"PLATFORM_FEE_BPS","inputs":[],"outputs":[{"name":"","type":"uint256","internalType":"uint256"}],"stateMutability":"view"},{"type":"function","name":"USDC_DECIMALS","inputs":[],"outputs":[{"name":"","type":"uint8","internalType":"uint8"}],"stateMutability":"view"},{"type":"function","name":"campaigns","inputs":[{"name":"","type":"uint256","internalType":"uint256"}],"outputs":[{"name":"active","type":"bool","internalType":"bool"},{"name":"creator","type":"address","internalType":"address payable"},{"name":"title","type":"string","internalType":"string"},{"name":"description","type":"string","internalType":"string"},{"name":"email","type":"string","internalType":"string"},{"name":"goal","type":"uint256","internalType":"uint256"},{"name":"raised","type":"uint256","internalType":"uint256"},{"name":"image","type":"string","internalType":"string"},{"name":"startDate","type":"uint256","internalType":"uint256"},{"name":"endDate","type":"uint256","internalType":"uint256"},{"name":"isComplete","type":"bool","internalType":"bool"},{"name":"withdrawnTotal","type":"uint256","internalType":"uint256"},{"name":"withdrawReason","type":"string","internalType":"string"}],"stateMutability":"view"},{"type":"function","name":"createCampaign","inputs":[{"name":"_title","type":"string","internalType":"string"},{"name":"_description","type":"string","internalType":"string"},{"name":"_email","type":"string","internalType":"string"},{"name":"_goal","type":"uint256","internalType":"uint256"},{"name":"_image","type":"string","internalType":"string"},{"name":"_startDate","type":"uint256","internalType":"uint256"},{"name":"_endDate","type":"uint256","internalType":"uint256"}],"outputs":[],"stateMutability":"nonpayable"},{"type":"function","name":"donate","inputs":[{"name":"_campaignId","type":"uint256","internalType":"uint256"},{"name":"_amount","type":"uint256","internalType":"uint256"},{"name":"_donorName","type":"string","internalType":"string"}],"outputs":[],"stateMutability":"nonpayable"},{"type":"function","name":"donorList","inputs":[{"name":"","type":"uint256","internalType":"uint256"}],"outputs":[{"name":"","type":"address","internalType":"address"}],"stateMutability":"view"},{"type":"function","name":"donors","inputs":[{"name":"","type":"address","internalType":"address"}],"outputs":[{"name":"name","type":"string","internalType":"string"},{"name":"totalDonated","type":"uint256","internalType":"uint256"}],"stateMutability":"view"},{"type":"function","name":"getAllCampaigns","inputs":[],"outputs":[],"stateMutability":"pure"},{"type":"function","name":"leaderBoard","inputs":[{"name":"","type":"uint256","internalType":"uint256"}],"outputs":[],"stateMutability":"pure"},{"type":"function","name":"owner","inputs":[],"outputs":[{"name":"","type":"address","internalType":"address"}],"stateMutability":"view"},{"type":"function","name":"pause","inputs":[],"outputs":[],"stateMutability":"nonpayable"},{"type":"function","name":"paused","inputs":[],"outputs":[{"name":"","type":"bool","internalType":"bool"}],"stateMutability":"view"},{"type":"function","name":"renounceOwnership","inputs":[],"outputs":[],"stateMutability":"nonpayable"},{"type":"function","name":"setCampaignStatus","inputs":[{"name":"_campaignId","type":"uint256","internalType":"uint256"},{"name":"isActive","type":"bool","internalType":"bool"}],"outputs":[],"stateMutability":"nonpayable"},{"type":"function","name":"setUSDCAddress","inputs":[{"name":"_usdc","type":"address","internalType":"address"}],"outputs":[],"stateMutability":"nonpayable"},{"type":"function","name":"totalPlatformFees","inputs":[],"outputs":[{"name":"","type":"uint256","internalType":"uint256"}],"stateMutability":"view"},{"type":"function","name":"transferOwnership","inputs":[{"name":"newOwner","type":"address","internalType":"address"}],"outputs":[],"stateMutability":"nonpayable"},{"type":"function","name":"unpause","inputs":[],"outputs":[],"stateMutability":"nonpayable"},{"type":"function","name":"usdc","inputs":[],"outputs":[{"name":"","type":"address","internalType":"contract IERC20"}],"stateMutability":"view"},{"type":"function","name":"withdraw","inputs":[{"name":"_campaignId","type":"uint256","internalType":"uint256"},{"name":"_amount","type":"uint256","internalType":"uint256"},{"name":"_reason","type":"string","internalType":"string"}],"outputs":[],"stateMutability":"nonpayable"},{"type":"function","name":"withdrawPlatformFees","inputs":[{"name":"_to","type":"address","internalType":"address payable"}],"outputs":[],"stateMutability":"nonpayable"},{"type":"event","name":"CampaignCreated","inputs":[{"name":"campaignId","type":"uint256","indexed":true,"internalType":"uint256"},{"name":"creator","type":"address","indexed":true,"internalType":"address"},{"name":"title","type":"string","indexed":false,"internalType":"string"},{"name":"image","type":"string","indexed":false,"internalType":"string"},{"name":"goal","type":"uint256","indexed":false,"internalType":"uint256"},{"name":"startDate","type":"uint256","indexed":false,"internalType":"uint256"},{"name":"endDate","type":"uint256","indexed":false,"internalType":"uint256"}],"anonymous":false},{"type":"event","name":"CampaignStatusChanged","inputs":[{"name":"campaignId","type":"uint256","indexed":true,"internalType":"uint256"},{"name":"isActive","type":"bool","indexed":false,"internalType":"bool"}],"anonymous":false},{"type":"event","name":"Donated","inputs":[{"name":"campaignId","type":"uint256","indexed":true,"internalType":"uint256"},{"name":"donor","type":"address","indexed":true,"internalType":"address"},{"name":"amountGross","type":"uint256","indexed":false,"internalType":"uint256"},{"name":"amountNet","type":"uint256","indexed":false,"internalType":"uint256"},{"name":"donorName","type":"string","indexed":false,"internalType":"string"}],"anonymous":false},{"type":"event","name":"OwnershipTransferred","inputs":[{"name":"previousOwner","type":"address","indexed":true,"internalType":"address"},{"name":"newOwner","type":"address","indexed":true,"internalType":"address"}],"anonymous":false},{"type":"event","name":"Paused","inputs":[{"name":"account","type":"address","indexed":false,"internalType":"address"}],"anonymous":false},{"type":"event","name":"PlatformFeesWithdrawn","inputs":[{"name":"to","type":"address","indexed":true,"internalType":"address"},{"name":"amount","type":"uint256","indexed":false,"internalType":"uint256"}],"anonymous":false},{"type":"event","name":"USDCAddressUpdated","inputs":[{"name":"oldAddress","type":"address","indexed":true,"internalType":"address"},{"name":"newAddress","type":"address","indexed":true,"internalType":"address"}],"anonymous":false},{"type":"event","name":"Unpaused","inputs":[{"name":"account","type":"address","indexed":false,"internalType":"address"}],"anonymous":false},{"type":"event","name":"Withdrawn","inputs":[{"name":"campaignId","type":"uint256","indexed":true,"internalType":"uint256"},{"name":"creator","type":"address","indexed":true,"internalType":"address"},{"name":"amount","type":"uint256","indexed":false,"internalType":"uint256"},{"name":"reason","type":"string","indexed":false,"internalType":"string"}],"anonymous":false},{"type":"error","name":"CampaignEnded","inputs":[]},{"type":"error","name":"CampaignInactive","inputs":[]},{"type":"error","name":"CampaignNotComplete","inputs":[]},{"type":"error","name":"DescriptionRequired","inputs":[]},{"type":"error","name":"EmailRequired","inputs":[]},{"type":"error","name":"EnforcedPause","inputs":[]},{"type":"error","name":"ExpectedPause","inputs":[]},{"type":"error","name":"InvalidAmount","inputs":[]},{"type":"error","name":"InvalidDates","inputs":[]},{"type":"error","name":"InvalidGoal","inputs":[]},{"type":"error","name":"InvalidID","inputs":[]},{"type":"error","name":"NoFees","inputs":[]},{"type":"error","name":"NotCreator","inputs":[]},{"type":"error","name":"NotStarted","inputs":[]},{"type":"error","name":"OwnableInvalidOwner","inputs":[{"name":"owner","type":"address","internalType":"address"}]},{"type":"error","name":"OwnableUnauthorizedAccount","inputs":[{"name":"account","type":"address","internalType":"address"}]},{"type":"error","name":"ReentrancyGuardReentrantCall","inputs":[]},{"type":"error","name":"SafeERC20FailedOperation","inputs":[{"name":"token","type":"address","internalType":"address"}]},{"type":"error","name":"StartDateTooEarly","inputs":[]},{"type":"error","name":"TitleRequired","inputs":[]},{"type":"error","name":"TransferFailed","inputs":[]},{"type":"error","name":"WithdrawLimitExceeded","inputs":[]},{"type":"error","name":"ZeroAddress","inputs":[]}],"bytecode":{"object":"0x60803461010b57601f611aea38819003918201601f19168301916001600160401b0383118484101761010f5780849260209460405283398101031261010b57516001600160a01b0381169081900361010b5733156100f8575f8054336001600160a01b0319821681178355604051939290916001600160a01b0316907f8be0079c531659141344cd1fd0a4f28419497f9722a3daafe3b4186f6b6457e09080a360017f9b779b17422d0df92223018b32b4d1fa46e071723d6817e2486d003becc55f005580156100e957600180546001600160a01b0319169190911790556119c690816101248239f35b63d92e233d60e01b5f5260045ffd5b631e4fbdf760e01b5f525f60045260245ffd5b5f80fd5b634e487b7160e01b5f52604160045260245ffdfe60806040526004361015610011575f80fd5b5f3560e01c8063141961bc1461150457806316c3cdf5146111465780632acac83b14611130578063369c681b14610e875780633b319262146105e75780633e413bee146105bf5780633f4ba83a14610553578063539aa77f146105385780635c975abb146105145780635eed3dcb146104d2578063715018a61461047b5780638456cb591461041b57806386cdf604146104065780638da5cb5b146103df578063aaf5bfc314610359578063c1419def1461033e578063ca0cdea8146102de578063d3631fa5146102c1578063eac7d18614610232578063ec3889b51461018d5763f2fde38b14610100575f80fd5b34610189576020366003190112610189576004356001600160a01b038116908190036101895761012e61194a565b8015610176575f80546001600160a01b03198116831782556001600160a01b0316907f8be0079c531659141344cd1fd0a4f28419497f9722a3daafe3b4186f6b6457e09080a3005b631e4fbdf760e01b5f525f60045260245ffd5b5f80fd5b34610189576020366003190112610189576004356001600160a01b03811690819003610189576101bb61194a565b6101c361189a565b60025480156102235760207ffc7ad544ff6a06d6499925723d25b6fe70457a42939995b1d3d6f560fe336333915f600255610209818560018060a01b03600154166118d2565b604051908152a260015f5160206119715f395f51905f5255005b6303fbecdf60e51b5f5260045ffd5b3461018957604036600319011261018957600435602435801515908181036101895761025c61194a565b6003548310156102b2577f33641491749634f1bb4cfb02728199b749f89fca34cc54faf7e74bbb84910885916102a96020926102978661163c565b509060ff801983541691151516179055565b604051908152a2005b637ae9080f60e11b5f5260045ffd5b34610189575f366003190112610189576020600254604051908152f35b34610189576020366003190112610189576004356001600160a01b03811690819003610189575f52600460205261033460405f20600161031d826116c5565b910154604051928392604084526040840190611765565b9060208301520390f35b34610189575f36600319011261018957602060405160068152f35b34610189576020366003190112610189576004356001600160a01b038116908190036101895761038761194a565b80156103d057600180546001600160a01b0319811683179091556001600160a01b03167fd6f103212e42c9ad7ce0b1d967e2f8b8cf8385a9220c0dc52c5c2fe9f6925f8f5f80a3005b63d92e233d60e01b5f5260045ffd5b34610189575f366003190112610189575f546040516001600160a01b039091168152602090f35b34610189575f36600319011215611845575f80fd5b34610189575f3660031901126101895761043361194a565b61043b61187d565b5f805460ff60a01b1916600160a01b1790556040513381527f62e78cea01bee320cd4e420270b5ea74000d11b0c9f74754ebdbfc544b05a25890602090a1005b34610189575f3660031901126101895761049361194a565b5f80546001600160a01b0319811682556001600160a01b03167f8be0079c531659141344cd1fd0a4f28419497f9722a3daafe3b4186f6b6457e08280a3005b3461018957602036600319011261018957600435600554811015610189576104fb602091611813565b905460405160039290921b1c6001600160a01b03168152f35b34610189575f36600319011261018957602060ff5f5460a01c166040519015158152f35b34610189575f36600319011261018957602060405160648152f35b34610189575f3660031901126101895761056b61194a565b5f5460ff8160a01c16156105b05760ff60a01b19165f556040513381527f5db9ee0a495bf2e6ff9c91a7834c1ba4fdd244a5e8aa4e537bd38aeae4b073aa90602090a1005b638dfc202b60e01b5f5260045ffd5b34610189575f366003190112610189576001546040516001600160a01b039091168152602090f35b346101895760e0366003190112610189576004356001600160401b03811161018957610617903690600401611789565b6024356001600160401b03811161018957610636903690600401611789565b6044356001600160401b03811161018957610655903690600401611789565b90606435926084356001600160401b03811161018957610679903690600401611789565b9261068261187d565b815115610e7857825115610e6957805115610e5a578415610e4b5760c43560a4351015610e3c574260a43510610e2d57604051906101a082018281106001600160401b03821117610af2576040526001825260208201903382526040830194848652606084015260808301528560a08301525f60c08301528460e083015260a43561010083015260c4356101208301525f6101408301525f61016083015260209360405161073086826116a4565b5f8152610180840152600354600160401b811015610af257806001610758920160035561163c565b929092610e1a5761077884511515849060ff801983541691151516179055565b518254610100600160a81b03191660089190911b610100600160a81b0316178255518051906001600160401b038211610af25781906107ba600185015461166c565b601f8111610dcc575b508690601f8311600114610d5f575f92610d54575b50508160011b915f199060031b1c19161760018201555b60608201518051906001600160401b038211610af2578190610814600285015461166c565b601f8111610d06575b508690601f8311600114610c99575f92610c8e575b50508160011b915f199060031b1c19161760028201555b60808201518051906001600160401b038211610af257819061086e600385015461166c565b601f8111610c40575b508690601f8311600114610bd3575f92610bc8575b50508160011b915f199060031b1c19161760038201555b60a0820151600482015560c0820151600582015560e08201518051906001600160401b038211610af2576108da600684015461166c565b601f8111610b82575b508590601f8311600114610b115791806101809492600b945f92610b06575b50508160011b915f199060031b1c19161760068201555b6101008401516007820155610120840151600882015561094f6101408501511515600983019060ff801983541691151516179055565b610160840151600a820155019101518051906001600160401b038211610af257819061097b845461166c565b601f8111610aa4575b508590601f8311600114610a41575f92610a36575b50508160011b915f199060031b1c19161790555b6003545f19810193908411610a22577fd480b74e35dd5c1829b9f29cd39f2ebdeb02598aee4fc0220c30371e2d356f3592610a04916109f76040519460a0865260a0860190611765565b9184830390850152611765565b93604082015260a435606082015260c43560808201528033940390a3005b634e487b7160e01b5f52601160045260245ffd5b015190508780610999565b5f8581528781209350601f198516905b88828210610a8e575050908460019594939210610a76575b505050811b0190556109ad565b01515f1960f88460031b161c19169055878080610a69565b6001859682939686015181550195019301610a51565b909150835f52855f20601f840160051c810191878510610ae8575b90601f859493920160051c01905b818110610ada5750610984565b5f8155849350600101610acd565b9091508190610abf565b634e487b7160e01b5f52604160045260245ffd5b015190508a80610902565b90600684015f52865f20915f5b88601f1986168210610b6c575050926101809492600192600b9583601f19811610610b54575b505050811b016006820155610919565b01515f1960f88460031b161c191690558a8080610b44565b6001849582939585015181550194019201610b1e565b600684015f52865f20601f840160051c810191888510610bbe575b601f0160051c01905b818110610bb357506108e3565b5f8155600101610ba6565b9091508190610b9d565b01519050888061088c565b9250600384015f52865f20905f935b88601f1985168610610c2757506001945083601f19811610610c0f575b505050811b0160038201556108a3565b01515f1960f88460031b161c19169055888080610bff565b8282015184559485019460019093019290910190610be2565b909150600384015f52865f20601f840160051c8101888510610c87575b90849392915b601f830160051c82018110610c79575050610877565b5f8155859450600101610c63565b5080610c5d565b015190508880610832565b9250600284015f52865f20905f935b88601f1985168610610ced57506001945083601f19811610610cd5575b505050811b016002820155610849565b01515f1960f88460031b161c19169055888080610cc5565b8282015184559485019460019093019290910190610ca8565b909150600284015f52865f20601f840160051c8101888510610d4d575b90849392915b601f830160051c82018110610d3f57505061081d565b5f8155859450600101610d29565b5080610d23565b0151905088806107d8565b9250600184015f52865f20905f935b88601f1985168610610db357506001945083601f19811610610d9b575b505050811b0160018201556107ef565b01515f1960f88460031b161c19169055888080610d8b565b8282015184559485019460019093019290910190610d6e565b909150600184015f52865f20601f840160051c8101888510610e13575b90849392915b601f830160051c82018110610e055750506107c3565b5f8155859450600101610def565b5080610de9565b634e487b7160e01b5f525f60045260245ffd5b63517cbc4760e01b5f5260045ffd5b63364dd21b60e21b5f5260045ffd5b639b60eb4d60e01b5f5260045ffd5b634d80294560e11b5f5260045ffd5b633e61080d60e01b5f5260045ffd5b6319d546f160e31b5f5260045ffd5b3461018957610e95366117de565b91906003548210156102b257610eaa8261163c565b505460081c6001600160a01b0316330361112157610ec661189a565b610ece61187d565b80610ed88361163c565b509060ff6009830154161561111357620f424081106110f2575b5060058101546019810281810460191482151715610a22576064900490600a830191610f208354809361182b565b8181106110ea575b5084116110db5783610f3991611838565b9055600b810184516001600160401b038111610af257610f59825461166c565b601f8111611096575b506020601f821160011461100e5792610fd092828695937f5dd5c6a09a77f4afee0fa017b410fcd60ffcd859af84d89191578e2bf4a096f197945f91611003575b508160011b915f199060031b1c19161790555b600154905460081c6001600160a01b0390811691166118d2565b6040519081526040602082015280610fed33956040830190611765565b0390a360015f5160206119715f395f51905f5255005b90508901518a610fa3565b601f19821690835f52805f20915f5b81811061107e575083879693610fd096937f5dd5c6a09a77f4afee0fa017b410fcd60ffcd859af84d89191578e2bf4a096f1999660019410611066575b5050811b019055610fb6565b8b01515f1960f88460031b161c191690558a8061105a565b9192602060018192868d01518155019401920161101d565b825f5260205f20601f830160051c810191602084106110d1575b601f0160051c01905b8181106110c65750610f62565b5f81556001016110b9565b90915081906110b0565b6314f310c960e01b5f5260045ffd5b905087610f28565b909150620f4240810290808204620f42401490151715610a22579084610ef2565b62dbf9a360e11b5f5260045ffd5b6393687c0b60e01b5f5260045ffd5b3461018957602036600319011215611845575f80fd5b3461018957611154366117de565b919061115e61187d565b80156114f55761116c61189a565b806003548310156102b2576111808361163c565b5060ff815416156114e657600781015442106114d7576008810191825442116114c857620f424081106114ac575b5060018060a01b03600154166040516323b872dd60e01b5f5233600452306024528460445260205f60648180865af19060015f511482161561148b575b6040525f6060521561147957506064830283810460641484151715610a225761271090049161122661121d848661182b565b93600254611838565b60025560058201611238848254611838565b8091556004830154119081159161146e575b5061145a575b50335f526004602052600160405f200154156112c8575b907f9b86e55b5896f575b1023e720df2f77bda216eac2e650bfaf6298862f1961b5991335f526004602052600160405f20016112a4838254611838565b905560405191825260208201526060604082015280610fed33956060830190611765565b600554600160401b811015610af2578060016112e79201600555611813565b81549060031b9033821b9160018060a01b03901b1916179055335f52600460205260405f2084516001600160401b038111610af257611326825461166c565b601f8111611415575b506020601f82116001146113915790807f9b86e55b5896f575b1023e720df2f77bda216eac2e650bfaf6298862f1961b59959493925f91611386575b508160011b915f199060031b1c19161790555b909150611267565b90508701518861136b565b601f19821690835f52805f20915f5b8181106113fd57509183917f9b86e55b5896f575b1023e720df2f77bda216eac2e650bfaf6298862f1961b5997969594600194106113e5575b5050811b01905561137e565b8901515f1960f88460031b161c1916905588806113d9565b9192602060018192868d0151815501940192016113a0565b825f5260205f20601f830160051c81019160208410611450575b601f0160051c01905b818110611445575061132f565b5f8155600101611438565b909150819061142f565b600901805460ff1916600117905584611250565b90505442118661124a565b635274afe760e01b5f5260045260245ffd5b9060018115166114a357823b15153d151616906111eb565b503d5f823e3d90fd5b909250620f42408102908104620f424003610a225791856111ae565b63154eb81560e21b5f5260045ffd5b636f312cbd60e01b5f5260045ffd5b63e72b39f960e01b5f5260045ffd5b63162908e360e11b5f5260045ffd5b34610189576020366003190112610189576004356003548110156101895761152b9061163c565b50805461153a600183016116c5565b91611547600282016116c5565b90611554600382016116c5565b9060048101549160058201546006830161156d906116c5565b600784015494600885015492600986015460ff1694600a87015496600b01611594906116c5565b986040519b8b60ff8e9d1615158d52600160a01b600190039060081c1660208d015260408c016101a090526101a08c016115cd91611765565b8b810360608d01526115de91611765565b8a810360808c01526115ef91611765565b9160a08a015260c089015287810360e089015261160b91611765565b93610100870152610120860152151561014085015261016084015282810361018084015261163891611765565b0390f35b6003548110156116585760035f52600c60205f20910201905f90565b634e487b7160e01b5f52603260045260245ffd5b90600182811c9216801561169a575b602083101461168657565b634e487b7160e01b5f52602260045260245ffd5b91607f169161167b565b90601f801991011681019081106001600160401b03821117610af257604052565b9060405191825f8254926116d88461166c565b808452936001811690811561174357506001146116ff575b506116fd925003836116a4565b565b90505f9291925260205f20905f915b8183106117275750509060206116fd928201015f6116f0565b602091935080600191548385890101520191019091849261170e565b9050602092506116fd94915060ff191682840152151560051b8201015f6116f0565b805180835260209291819084018484015e5f828201840152601f01601f1916010190565b81601f82011215610189578035906001600160401b038211610af257604051926117bd601f8401601f1916602001856116a4565b8284526020838301011161018957815f926020809301838601378301015290565b6060600319820112610189576004359160243591604435906001600160401b0382116101895761181091600401611789565b90565b6005548110156116585760055f5260205f2001905f90565b91908203918211610a2257565b91908201809211610a2257565b60405162461bcd60e51b815260206004820152601060248201526f3430b7323632b21037b33331b430b4b760811b6044820152606490fd5b60ff5f5460a01c1661188b57565b63d93c066560e01b5f5260045ffd5b60025f5160206119715f395f51905f5254146118c35760025f5160206119715f395f51905f5255565b633ee5aeb560e01b5f5260045ffd5b916040519163a9059cbb60e01b5f5260018060a01b031660045260245260205f60448180865af19060015f5114821615611932575b604052156119125750565b635274afe760e01b5f9081526001600160a01b0391909116600452602490fd5b9060018115166114a357823b15153d15161690611907565b5f546001600160a01b0316330361195d57565b63118cdaa760e01b5f523360045260245ffdfe9b779b17422d0df92223018b32b4d1fa46e071723d6817e2486d003becc55f00a26469706673582212205dc6729b7db5c2db7f7758b25121787303a372737e72a23dac962c4152cf4c0c64736f6c634300081e0033","linkReferences":{}},"methodIdentifiers":{"PLATFORM_FEE_BPS()":"539aa77f","USDC_DECIMALS()":"c1419def","campaigns(uint256)":"141961bc","createCampaign(string,string,string,uint256,string,uint256,uint256)":"3b319262","donate(uint256,uint256,string)":"16c3cdf5","donorList(uint256)":"5eed3dcb","donors(address)":"ca0cdea8","getAllCampaigns()":"86cdf604","leaderBoard(uint256)":"2acac83b","owner()":"8da5cb5b","pause()":"8456cb59","paused()":"5c975abb","renounceOwnership()":"715018a6","setCampaignStatus(uint256,bool)":"eac7d186","setUSDCAddress(address)":"aaf5bfc3","totalPlatformFees()":"d3631fa5","transferOwnership(address)":"f2fde38b","unpause()":"3f4ba83a","usdc()":"3e413bee","withdraw(uint256,uint256,string)":"369c681b","withdrawPlatformFees(address)":"ec3889b5"},"id":27}