{"abi":[{"type":"constructor","inputs":[{"name":"_usdc","type":"address","internalType":"address"}],"stateMutability":"nonpayable"},{"type":"function","name":"PLATFORM_FEE_BPS","inputs":[],"outputs":[{"name":"","type":"uint256","internalType":"uint256"}],"stateMutability":"view"},{"type":"function","name":"campaigns","inputs":[{"name":"","type":"uint256","internalType":"uint256"}],"outputs":[{"name":"active","type":"bool","internalType":"bool"},{"name":"creator","type":"address","internalType":"address payable"},{"name":"title","type":"string","internalType":"string"},{"name":"description","type":"string","internalType":"string"},{"name":"email","type":"string","internalType":"string"},{"name":"goal","type":"uint256","internalType":"uint256"},{"name":"raised","type":"uint256","internalType":"uint256"},{"name":"image","type":"string","internalType":"string"},{"name":"startDate","type":"uint256","internalType":"uint256"},{"name":"endDate","type":"uint256","internalType":"uint256"},{"name":"isComplete","type":"bool","internalType":"bool"},{"name":"withdrawnTotal","type":"uint256","internalType":"uint256"}],"stateMutability":"view"},{"type":"function","name":"createCampaign","inputs":[{"name":"_title","type":"string","internalType":"string"},{"name":"_description","type":"string","internalType":"string"},{"name":"_email","type":"string","internalType":"string"},{"name":"_goal","type":"uint256","internalType":"uint256"},{"name":"_image","type":"string","internalType":"string"},{"name":"_startDate","type":"uint256","internalType":"uint256"},{"name":"_endDate","type":"uint256","internalType":"uint256"}],"outputs":[],"stateMutability":"nonpayable"},{"type":"function","name":"donate","inputs":[{"name":"_campaignId","type":"uint256","internalType":"uint256"},{"name":"_amount","type":"uint256","internalType":"uint256"},{"name":"_donorName","type":"string","internalType":"string"}],"outputs":[],"stateMutability":"nonpayable"},{"type":"function","name":"donorList","inputs":[{"name":"","type":"uint256","internalType":"uint256"}],"outputs":[{"name":"","type":"address","internalType":"address"}],"stateMutability":"view"},{"type":"function","name":"donors","inputs":[{"name":"","type":"address","internalType":"address"}],"outputs":[{"name":"name","type":"string","internalType":"string"},{"name":"totalDonated","type":"uint256","internalType":"uint256"}],"stateMutability":"view"},{"type":"function","name":"getAllCampaigns","inputs":[],"outputs":[],"stateMutability":"pure"},{"type":"function","name":"leaderBoard","inputs":[{"name":"","type":"uint256","internalType":"uint256"}],"outputs":[],"stateMutability":"pure"},{"type":"function","name":"owner","inputs":[],"outputs":[{"name":"","type":"address","internalType":"address"}],"stateMutability":"view"},{"type":"function","name":"pause","inputs":[],"outputs":[],"stateMutability":"nonpayable"},{"type":"function","name":"paused","inputs":[],"outputs":[{"name":"","type":"bool","internalType":"bool"}],"stateMutability":"view"},{"type":"function","name":"renounceOwnership","inputs":[],"outputs":[],"stateMutability":"nonpayable"},{"type":"function","name":"setCampaignStatus","inputs":[{"name":"_campaignId","type":"uint256","internalType":"uint256"},{"name":"isActive","type":"bool","internalType":"bool"}],"outputs":[],"stateMutability":"nonpayable"},{"type":"function","name":"setUSDCAddress","inputs":[{"name":"_usdc","type":"address","internalType":"address"}],"outputs":[],"stateMutability":"nonpayable"},{"type":"function","name":"totalPlatformFees","inputs":[],"outputs":[{"name":"","type":"uint256","internalType":"uint256"}],"stateMutability":"view"},{"type":"function","name":"transferOwnership","inputs":[{"name":"newOwner","type":"address","internalType":"address"}],"outputs":[],"stateMutability":"nonpayable"},{"type":"function","name":"unpause","inputs":[],"outputs":[],"stateMutability":"nonpayable"},{"type":"function","name":"usdc","inputs":[],"outputs":[{"name":"","type":"address","internalType":"contract IERC20"}],"stateMutability":"view"},{"type":"function","name":"withdraw","inputs":[{"name":"_campaignId","type":"uint256","internalType":"uint256"},{"name":"_amount","type":"uint256","internalType":"uint256"},{"name":"_reason","type":"string","internalType":"string"}],"outputs":[],"stateMutability":"nonpayable"},{"type":"function","name":"withdrawPlatformFees","inputs":[{"name":"_to","type":"address","internalType":"address payable"}],"outputs":[],"stateMutability":"nonpayable"},{"type":"event","name":"CampaignCreated","inputs":[{"name":"campaignId","type":"uint256","indexed":true,"internalType":"uint256"},{"name":"creator","type":"address","indexed":true,"internalType":"address"},{"name":"title","type":"string","indexed":false,"internalType":"string"},{"name":"description","type":"string","indexed":false,"internalType":"string"},{"name":"image","type":"string","indexed":false,"internalType":"string"},{"name":"goal","type":"uint256","indexed":false,"internalType":"uint256"},{"name":"startDate","type":"uint256","indexed":false,"internalType":"uint256"},{"name":"endDate","type":"uint256","indexed":false,"internalType":"uint256"}],"anonymous":false},{"type":"event","name":"CampaignStatusChanged","inputs":[{"name":"campaignId","type":"uint256","indexed":true,"internalType":"uint256"},{"name":"isActive","type":"bool","indexed":false,"internalType":"bool"}],"anonymous":false},{"type":"event","name":"Donated","inputs":[{"name":"campaignId","type":"uint256","indexed":true,"internalType":"uint256"},{"name":"donor","type":"address","indexed":true,"internalType":"address"},{"name":"amountGross","type":"uint256","indexed":false,"internalType":"uint256"},{"name":"amountNet","type":"uint256","indexed":false,"internalType":"uint256"},{"name":"donorName","type":"string","indexed":false,"internalType":"string"}],"anonymous":false},{"type":"event","name":"OwnershipTransferred","inputs":[{"name":"previousOwner","type":"address","indexed":true,"internalType":"address"},{"name":"newOwner","type":"address","indexed":true,"internalType":"address"}],"anonymous":false},{"type":"event","name":"Paused","inputs":[{"name":"account","type":"address","indexed":false,"internalType":"address"}],"anonymous":false},{"type":"event","name":"PlatformFeesWithdrawn","inputs":[{"name":"to","type":"address","indexed":true,"internalType":"address"},{"name":"amount","type":"uint256","indexed":false,"internalType":"uint256"}],"anonymous":false},{"type":"event","name":"USDCAddressUpdated","inputs":[{"name":"oldAddress","type":"address","indexed":true,"internalType":"address"},{"name":"newAddress","type":"address","indexed":true,"internalType":"address"}],"anonymous":false},{"type":"event","name":"Unpaused","inputs":[{"name":"account","type":"address","indexed":false,"internalType":"address"}],"anonymous":false},{"type":"event","name":"Withdrawn","inputs":[{"name":"campaignId","type":"uint256","indexed":true,"internalType":"uint256"},{"name":"creator","type":"address","indexed":true,"internalType":"address"},{"name":"amount","type":"uint256","indexed":false,"internalType":"uint256"},{"name":"reason","type":"string","indexed":false,"internalType":"string"}],"anonymous":false},{"type":"error","name":"CampaignEnded","inputs":[]},{"type":"error","name":"CampaignInactive","inputs":[]},{"type":"error","name":"CampaignNotComplete","inputs":[]},{"type":"error","name":"DescriptionRequired","inputs":[]},{"type":"error","name":"EmailRequired","inputs":[]},{"type":"error","name":"EnforcedPause","inputs":[]},{"type":"error","name":"ExpectedPause","inputs":[]},{"type":"error","name":"InvalidAmount","inputs":[]},{"type":"error","name":"InvalidDates","inputs":[]},{"type":"error","name":"InvalidGoal","inputs":[]},{"type":"error","name":"InvalidID","inputs":[]},{"type":"error","name":"MinimumWithdrawIsOneUSDC","inputs":[]},{"type":"error","name":"MustWithdrawAllRemaining","inputs":[]},{"type":"error","name":"NoFees","inputs":[]},{"type":"error","name":"NotCreator","inputs":[]},{"type":"error","name":"NotStarted","inputs":[]},{"type":"error","name":"NothingToWithdraw","inputs":[]},{"type":"error","name":"OwnableInvalidOwner","inputs":[{"name":"owner","type":"address","internalType":"address"}]},{"type":"error","name":"OwnableUnauthorizedAccount","inputs":[{"name":"account","type":"address","internalType":"address"}]},{"type":"error","name":"ReentrancyGuardReentrantCall","inputs":[]},{"type":"error","name":"SafeERC20FailedOperation","inputs":[{"name":"token","type":"address","internalType":"address"}]},{"type":"error","name":"StartDateTooEarly","inputs":[]},{"type":"error","name":"TitleRequired","inputs":[]},{"type":"error","name":"WithdrawLimitExceeded","inputs":[]},{"type":"error","name":"ZeroAddress","inputs":[]}],"bytecode":{"object":"0x60803461010b57601f6118d838819003918201601f19168301916001600160401b0383118484101761010f5780849260209460405283398101031261010b57516001600160a01b0381169081900361010b5733156100f8575f8054336001600160a01b0319821681178355604051939290916001600160a01b0316907f8be0079c531659141344cd1fd0a4f28419497f9722a3daafe3b4186f6b6457e09080a360017f9b779b17422d0df92223018b32b4d1fa46e071723d6817e2486d003becc55f005580156100e957600180546001600160a01b0319169190911790556117b490816101248239f35b63d92e233d60e01b5f5260045ffd5b631e4fbdf760e01b5f525f60045260245ffd5b5f80fd5b634e487b7160e01b5f52604160045260245ffdfe60806040526004361015610011575f80fd5b5f3560e01c8063141961bc1461131257806316c3cdf514610f775780632acac83b14610f61578063369c681b14610d125780633b319262146105c75780633e413bee1461059f5780633f4ba83a14610533578063539aa77f146105185780635c975abb146104f45780635eed3dcb146104b2578063715018a61461045b5780638456cb59146103fb57806386cdf604146103e65780638da5cb5b146103bf578063aaf5bfc314610348578063ca0cdea8146102e8578063d3631fa5146102cb578063eac7d1861461023c578063ec3889b5146101825763f2fde38b146100f5575f80fd5b3461017e57602036600319011261017e576004356001600160a01b0381169081900361017e57610123611738565b801561016b575f80546001600160a01b03198116831782556001600160a01b0316907f8be0079c531659141344cd1fd0a4f28419497f9722a3daafe3b4186f6b6457e09080a3005b631e4fbdf760e01b5f525f60045260245ffd5b5f80fd5b3461017e57602036600319011261017e576004356001600160a01b0381169081900361017e576101b0611738565b6101b8611688565b600254801561022d57811561021e5760207ffc7ad544ff6a06d6499925723d25b6fe70457a42939995b1d3d6f560fe336333915f600255610204818560018060a01b03600154166116c0565b604051908152a260015f51602061175f5f395f51905f5255005b63d92e233d60e01b5f5260045ffd5b6303fbecdf60e51b5f5260045ffd5b3461017e57604036600319011261017e576004356024358015159081810361017e57610266611738565b6003548310156102bc577f33641491749634f1bb4cfb02728199b749f89fca34cc54faf7e74bbb84910885916102b36020926102a18661142a565b509060ff801983541691151516179055565b604051908152a2005b637ae9080f60e11b5f5260045ffd5b3461017e575f36600319011261017e576020600254604051908152f35b3461017e57602036600319011261017e576004356001600160a01b0381169081900361017e575f52600460205261033e60405f206001610327826114b3565b910154604051928392604084526040840190611553565b9060208301520390f35b3461017e57602036600319011261017e576004356001600160a01b0381169081900361017e57610376611738565b801561021e57600180546001600160a01b0319811683179091556001600160a01b03167fd6f103212e42c9ad7ce0b1d967e2f8b8cf8385a9220c0dc52c5c2fe9f6925f8f5f80a3005b3461017e575f36600319011261017e575f546040516001600160a01b039091168152602090f35b3461017e575f36600319011215611633575f80fd5b3461017e575f36600319011261017e57610413611738565b61041b61166b565b5f805460ff60a01b1916600160a01b1790556040513381527f62e78cea01bee320cd4e420270b5ea74000d11b0c9f74754ebdbfc544b05a25890602090a1005b3461017e575f36600319011261017e57610473611738565b5f80546001600160a01b0319811682556001600160a01b03167f8be0079c531659141344cd1fd0a4f28419497f9722a3daafe3b4186f6b6457e08280a3005b3461017e57602036600319011261017e5760043560055481101561017e576104db602091611601565b905460405160039290921b1c6001600160a01b03168152f35b3461017e575f36600319011261017e57602060ff5f5460a01c166040519015158152f35b3461017e575f36600319011261017e57602060405160648152f35b3461017e575f36600319011261017e5761054b611738565b5f5460ff8160a01c16156105905760ff60a01b19165f556040513381527f5db9ee0a495bf2e6ff9c91a7834c1ba4fdd244a5e8aa4e537bd38aeae4b073aa90602090a1005b638dfc202b60e01b5f5260045ffd5b3461017e575f36600319011261017e576001546040516001600160a01b039091168152602090f35b3461017e5760e036600319011261017e576004356001600160401b03811161017e576105f7903690600401611577565b6024356001600160401b03811161017e57610616903690600401611577565b6044356001600160401b03811161017e57610635903690600401611577565b606435926084356001600160401b03811161017e57610658903690600401611577565b9160a43560c4359161066861166b565b835115610d0357855115610cf457805115610ce557620f42408710610cd65782821015610cc757428210610cb8576040519061018082018281106001600160401b03821117610a5757604052600182526020820190338252604083019086825260608401908982526080850190815260a085018b815260c086015f815260e08701918b83526101008801938985526101208901958b87526101408a01975f89526101608b01995f8b52600354600160401b811015610a5757806001610730920160035561142a565b9c909c610ca557610750905115158d9060ff801983541691151516179055565b518b54610100600160a81b03191660089190911b610100600160a81b0316178b5551805160018c01916001600160401b038211610a57578190610793845461145a565b601f8111610c55575b50602090601f8311600114610bf2575f92610be7575b50508160011b915f199060031b1c19161790555b51805160028b01916001600160401b038211610a575781906107e8845461145a565b601f8111610b97575b50602090601f8311600114610b34575f92610b29575b50508160011b915f199060031b1c19161790555b51805160038a01916001600160401b038211610a5757819061083d845461145a565b601f8111610ad9575b50602090601f8311600114610a76575f92610a6b575b50508160011b915f199060031b1c19161790555b51600488015551600587015551805160068701916001600160401b038211610a575761089c835461145a565b601f8111610a12575b50602090601f83116001146109a5579180610901969492600a999896945f9261099a575b50508160011b915f199060031b1c19161790555b516007870155516008860155511515600985019060ff801983541691151516179055565b519101556003545f19810195908611610986577f769b387080c6632151ef5a2693f50e6d482856489f7cf2b167318ea21dcf9fd29461096061096e926109526040519760c0895260c0890190611553565b908782036020890152611553565b908582036040870152611553565b956060840152608083015260a08201528033940390a3005b634e487b7160e01b5f52601160045260245ffd5b015190505f806108c9565b90601f19831691845f52815f20925f5b8181106109fa5750926001928592600a9b9a98966109019a9896106109e2575b505050811b0190556108dd565b01515f1960f88460031b161c191690555f80806109d5565b929360206001819287860151815501950193016109b5565b835f5260205f20601f840160051c81019160208510610a4d575b601f0160051c01905b818110610a4257506108a5565b5f8155600101610a35565b9091508190610a2c565b634e487b7160e01b5f52604160045260245ffd5b015190505f8061085c565b5f8581528281209350601f198516905b818110610ac15750908460019594939210610aa9575b505050811b019055610870565b01515f1960f88460031b161c191690555f8080610a9c565b92936020600181928786015181550195019301610a86565b909150835f5260205f20601f840160051c81019160208510610b1f575b90601f859493920160051c01905b818110610b115750610846565b5f8155849350600101610b04565b9091508190610af6565b015190505f80610807565b5f8581528281209350601f198516905b818110610b7f5750908460019594939210610b67575b505050811b01905561081b565b01515f1960f88460031b161c191690555f8080610b5a565b92936020600181928786015181550195019301610b44565b909150835f5260205f20601f840160051c81019160208510610bdd575b90601f859493920160051c01905b818110610bcf57506107f1565b5f8155849350600101610bc2565b9091508190610bb4565b015190505f806107b2565b5f8581528281209350601f198516905b818110610c3d5750908460019594939210610c25575b505050811b0190556107c6565b01515f1960f88460031b161c191690555f8080610c18565b92936020600181928786015181550195019301610c02565b909150835f5260205f20601f840160051c81019160208510610c9b575b90601f859493920160051c01905b818110610c8d575061079c565b5f8155849350600101610c80565b9091508190610c72565b634e487b7160e01b5f525f60045260245ffd5b63517cbc4760e01b5f5260045ffd5b63364dd21b60e21b5f5260045ffd5b639b60eb4d60e01b5f5260045ffd5b634d80294560e11b5f5260045ffd5b633e61080d60e01b5f5260045ffd5b6319d546f160e31b5f5260045ffd5b3461017e57610d20366115cc565b91906003548210156102bc57610d358261142a565b505460081c6001600160a01b03163303610f5257610d51611688565b610d5961166b565b610d628261142a565b5090600882015442118015610f40575b80610f31575b610f1d575b60ff60098301541615610f0f576005820154600a830190815490610da18282611619565b908115610f00576019810290808204601914901517156109865760649004620f4240811015610e6057508303610e51577f5dd5c6a09a77f4afee0fa017b410fcd60ffcd859af84d89191578e2bf4a096f193610e1e92610e02858094611626565b9055600154905460081c6001600160a01b0390811691166116c0565b6040519081526040602082015280610e3b33956040830190611553565b0390a360015f51602061175f5f395f51905f5255005b63112e7f0d60e31b5f5260045ffd5b808211610e9f57508303610e51577f5dd5c6a09a77f4afee0fa017b410fcd60ffcd859af84d89191578e2bf4a096f193610e1e92610e02858094611626565b9050620f42408410610ef1578311610ee2577f5dd5c6a09a77f4afee0fa017b410fcd60ffcd859af84d89191578e2bf4a096f193610e1e92610e02858094611626565b6314f310c960e01b5f5260045ffd5b63e1cf408b60e01b5f5260045ffd5b630686827b60e51b5f5260045ffd5b62dbf9a360e11b5f5260045ffd5b60098201805460ff19166001179055610d7d565b5060ff60098301541615610d78565b50600582015460048301541115610d72565b6393687c0b60e01b5f5260045ffd5b3461017e57602036600319011215611633575f80fd5b3461017e57610f85366115cc565b9190610f8f61166b565b80156112d657610f9d611688565b6003548210156102bc57610fb08261142a565b5060ff8154161561130357600781015442106112f4576008810190815442116112e557620f424083106112d65760018060a01b03600154166040516323b872dd60e01b5f5233600452306024528460445260205f60648180865af19060015f51148216156112b5575b6040525f606052156112a3575060648302838104606403610986576127109004916110506110478486611619565b93600254611626565b60025560058201611062848254611626565b80915560048301541190811591611298575b50611284575b50335f526004602052600160405f200154156110f2575b907f9b86e55b5896f575b1023e720df2f77bda216eac2e650bfaf6298862f1961b5991335f526004602052600160405f20016110ce838254611626565b905560405191825260208201526060604082015280610e3b33956060830190611553565b600554600160401b811015610a57578060016111119201600555611601565b81549060031b9033821b9160018060a01b03901b1916179055335f52600460205260405f2084516001600160401b038111610a5757611150825461145a565b601f811161123f575b506020601f82116001146111bb5790807f9b86e55b5896f575b1023e720df2f77bda216eac2e650bfaf6298862f1961b59959493925f916111b0575b508160011b915f199060031b1c19161790555b909150611091565b905087015188611195565b601f19821690835f52805f20915f5b81811061122757509183917f9b86e55b5896f575b1023e720df2f77bda216eac2e650bfaf6298862f1961b59979695946001941061120f575b5050811b0190556111a8565b8901515f1960f88460031b161c191690558880611203565b9192602060018192868d0151815501940192016111ca565b825f5260205f20601f830160051c8101916020841061127a575b601f0160051c01905b81811061126f5750611159565b5f8155600101611262565b9091508190611259565b600901805460ff191660011790558461107a565b905054421186611074565b635274afe760e01b5f5260045260245ffd5b9060018115166112cd57823b15153d15161690611019565b503d5f823e3d90fd5b63162908e360e11b5f5260045ffd5b63154eb81560e21b5f5260045ffd5b636f312cbd60e01b5f5260045ffd5b63e72b39f960e01b5f5260045ffd5b3461017e57602036600319011261017e5760043560035481101561017e576113399061142a565b508054611348600183016114b3565b91611355600282016114b3565b611361600383016114b3565b6004830154600584015493919061137a600684016114b3565b90600784015495600885015493600986015460ff1695600a0154966040519a8a60ff8d9c1615158c52600160a01b600190039060081c1660208c015260408b0161018090526101808b016113cd91611553565b8a810360608c01526113de91611553565b89810360808b01526113ef91611553565b9160a089015260c088015286810360e088015261140b91611553565b9361010086015261012085015215156101408401526101608301520390f35b6003548110156114465760035f52600b60205f20910201905f90565b634e487b7160e01b5f52603260045260245ffd5b90600182811c92168015611488575b602083101461147457565b634e487b7160e01b5f52602260045260245ffd5b91607f1691611469565b90601f801991011681019081106001600160401b03821117610a5757604052565b9060405191825f8254926114c68461145a565b808452936001811690811561153157506001146114ed575b506114eb92500383611492565b565b90505f9291925260205f20905f915b8183106115155750509060206114eb928201015f6114de565b60209193508060019154838589010152019101909184926114fc565b9050602092506114eb94915060ff191682840152151560051b8201015f6114de565b805180835260209291819084018484015e5f828201840152601f01601f1916010190565b81601f8201121561017e578035906001600160401b038211610a5757604051926115ab601f8401601f191660200185611492565b8284526020838301011161017e57815f926020809301838601378301015290565b606060031982011261017e576004359160243591604435906001600160401b03821161017e576115fe91600401611577565b90565b6005548110156114465760055f5260205f2001905f90565b9190820391821161098657565b9190820180921161098657565b60405162461bcd60e51b815260206004820152601060248201526f3430b7323632b21037b33331b430b4b760811b6044820152606490fd5b60ff5f5460a01c1661167957565b63d93c066560e01b5f5260045ffd5b60025f51602061175f5f395f51905f5254146116b15760025f51602061175f5f395f51905f5255565b633ee5aeb560e01b5f5260045ffd5b916040519163a9059cbb60e01b5f5260018060a01b031660045260245260205f60448180865af19060015f5114821615611720575b604052156117005750565b635274afe760e01b5f9081526001600160a01b0391909116600452602490fd5b9060018115166112cd57823b15153d151616906116f5565b5f546001600160a01b0316330361174b57565b63118cdaa760e01b5f523360045260245ffdfe9b779b17422d0df92223018b32b4d1fa46e071723d6817e2486d003becc55f00a2646970667358221220255070ad575f08ccb11230f22515414b34962fbbaeee6b191be16736a24e3aa264736f6c634300081e0033","linkReferences":{}},"methodIdentifiers":{"PLATFORM_FEE_BPS()":"539aa77f","campaigns(uint256)":"141961bc","createCampaign(string,string,string,uint256,string,uint256,uint256)":"3b319262","donate(uint256,uint256,string)":"16c3cdf5","donorList(uint256)":"5eed3dcb","donors(address)":"ca0cdea8","getAllCampaigns()":"86cdf604","leaderBoard(uint256)":"2acac83b","owner()":"8da5cb5b","pause()":"8456cb59","paused()":"5c975abb","renounceOwnership()":"715018a6","setCampaignStatus(uint256,bool)":"eac7d186","setUSDCAddress(address)":"aaf5bfc3","totalPlatformFees()":"d3631fa5","transferOwnership(address)":"f2fde38b","unpause()":"3f4ba83a","usdc()":"3e413bee","withdraw(uint256,uint256,string)":"369c681b","withdrawPlatformFees(address)":"ec3889b5"},"id":26}